{
    "_format": "hh-sol-artifact-1",
    "contractName": "Domains",
    "sourceName": "contracts/Domains.sol",
    "abi": [
        {
            "inputs": [
                {
                    "internalType": "string",
                    "name": "_ltd",
                    "type": "string"
                }
            ],
            "stateMutability": "payable",
            "type": "constructor"
        },
        {
            "inputs": [],
            "name": "AlreadyRegistered",
            "type": "error"
        },
        {
            "inputs": [
                {
                    "internalType": "string",
                    "name": "name",
                    "type": "string"
                }
            ],
            "name": "InvalidName",
            "type": "error"
        },
        {
            "inputs": [],
            "name": "Unauthorized",
            "type": "error"
        },
        {
            "anonymous": false,
            "inputs": [
                {
                    "indexed": true,
                    "internalType": "address",
                    "name": "owner",
                    "type": "address"
                },
                {
                    "indexed": true,
                    "internalType": "address",
                    "name": "approved",
                    "type": "address"
                },
                {
                    "indexed": true,
                    "internalType": "uint256",
                    "name": "tokenId",
                    "type": "uint256"
                }
            ],
            "name": "Approval",
            "type": "event"
        },
        {
            "anonymous": false,
            "inputs": [
                {
                    "indexed": true,
                    "internalType": "address",
                    "name": "owner",
                    "type": "address"
                },
                {
                    "indexed": true,
                    "internalType": "address",
                    "name": "operator",
                    "type": "address"
                },
                {
                    "indexed": false,
                    "internalType": "bool",
                    "name": "approved",
                    "type": "bool"
                }
            ],
            "name": "ApprovalForAll",
            "type": "event"
        },
        {
            "anonymous": false,
            "inputs": [
                {
                    "indexed": true,
                    "internalType": "address",
                    "name": "from",
                    "type": "address"
                },
                {
                    "indexed": true,
                    "internalType": "address",
                    "name": "to",
                    "type": "address"
                },
                {
                    "indexed": true,
                    "internalType": "uint256",
                    "name": "tokenId",
                    "type": "uint256"
                }
            ],
            "name": "Transfer",
            "type": "event"
        },
        {
            "inputs": [
                {
                    "internalType": "address",
                    "name": "to",
                    "type": "address"
                },
                {
                    "internalType": "uint256",
                    "name": "tokenId",
                    "type": "uint256"
                }
            ],
            "name": "approve",
            "outputs": [],
            "stateMutability": "nonpayable",
            "type": "function"
        },
        {
            "inputs": [
                {
                    "internalType": "address",
                    "name": "owner",
                    "type": "address"
                }
            ],
            "name": "balanceOf",
            "outputs": [
                {
                    "internalType": "uint256",
                    "name": "",
                    "type": "uint256"
                }
            ],
            "stateMutability": "view",
            "type": "function"
        },
        {
            "inputs": [
                {
                    "internalType": "string",
                    "name": "",
                    "type": "string"
                }
            ],
            "name": "domains",
            "outputs": [
                {
                    "internalType": "address",
                    "name": "",
                    "type": "address"
                }
            ],
            "stateMutability": "view",
            "type": "function"
        },
        {
            "inputs": [
                {
                    "internalType": "uint256",
                    "name": "",
                    "type": "uint256"
                }
            ],
            "name": "dominios",
            "outputs": [
                {
                    "internalType": "string",
                    "name": "",
                    "type": "string"
                }
            ],
            "stateMutability": "view",
            "type": "function"
        },
        {
            "inputs": [
                {
                    "internalType": "string",
                    "name": "name",
                    "type": "string"
                }
            ],
            "name": "getAddress",
            "outputs": [
                {
                    "internalType": "address",
                    "name": "",
                    "type": "address"
                }
            ],
            "stateMutability": "view",
            "type": "function"
        },
        {
            "inputs": [],
            "name": "getAllNames",
            "outputs": [
                {
                    "internalType": "string[]",
                    "name": "",
                    "type": "string[]"
                }
            ],
            "stateMutability": "view",
            "type": "function"
        },
        {
            "inputs": [
                {
                    "internalType": "uint256",
                    "name": "tokenId",
                    "type": "uint256"
                }
            ],
            "name": "getApproved",
            "outputs": [
                {
                    "internalType": "address",
                    "name": "",
                    "type": "address"
                }
            ],
            "stateMutability": "view",
            "type": "function"
        },
        {
            "inputs": [],
            "name": "getDominios",
            "outputs": [
                {
                    "internalType": "string[]",
                    "name": "",
                    "type": "string[]"
                }
            ],
            "stateMutability": "view",
            "type": "function"
        },
        {
            "inputs": [
                {
                    "internalType": "string",
                    "name": "name",
                    "type": "string"
                }
            ],
            "name": "getRecord",
            "outputs": [
                {
                    "internalType": "string",
                    "name": "",
                    "type": "string"
                }
            ],
            "stateMutability": "view",
            "type": "function"
        },
        {
            "inputs": [
                {
                    "internalType": "address",
                    "name": "owner",
                    "type": "address"
                },
                {
                    "internalType": "address",
                    "name": "operator",
                    "type": "address"
                }
            ],
            "name": "isApprovedForAll",
            "outputs": [
                {
                    "internalType": "bool",
                    "name": "",
                    "type": "bool"
                }
            ],
            "stateMutability": "view",
            "type": "function"
        },
        {
            "inputs": [],
            "name": "isOwner",
            "outputs": [
                {
                    "internalType": "bool",
                    "name": "",
                    "type": "bool"
                }
            ],
            "stateMutability": "view",
            "type": "function"
        },
        {
            "inputs": [],
            "name": "ltd",
            "outputs": [
                {
                    "internalType": "string",
                    "name": "",
                    "type": "string"
                }
            ],
            "stateMutability": "view",
            "type": "function"
        },
        {
            "inputs": [],
            "name": "name",
            "outputs": [
                {
                    "internalType": "string",
                    "name": "",
                    "type": "string"
                }
            ],
            "stateMutability": "view",
            "type": "function"
        },
        {
            "inputs": [
                {
                    "internalType": "uint256",
                    "name": "",
                    "type": "uint256"
                }
            ],
            "name": "nombresDominio",
            "outputs": [
                {
                    "internalType": "string",
                    "name": "",
                    "type": "string"
                }
            ],
            "stateMutability": "view",
            "type": "function"
        },
        {
            "inputs": [],
            "name": "owner",
            "outputs": [
                {
                    "internalType": "address payable",
                    "name": "",
                    "type": "address"
                }
            ],
            "stateMutability": "view",
            "type": "function"
        },
        {
            "inputs": [
                {
                    "internalType": "uint256",
                    "name": "tokenId",
                    "type": "uint256"
                }
            ],
            "name": "ownerOf",
            "outputs": [
                {
                    "internalType": "address",
                    "name": "",
                    "type": "address"
                }
            ],
            "stateMutability": "view",
            "type": "function"
        },
        {
            "inputs": [
                {
                    "internalType": "string",
                    "name": "name",
                    "type": "string"
                }
            ],
            "name": "price",
            "outputs": [
                {
                    "internalType": "uint256",
                    "name": "",
                    "type": "uint256"
                }
            ],
            "stateMutability": "pure",
            "type": "function"
        },
        {
            "inputs": [
                {
                    "internalType": "string",
                    "name": "",
                    "type": "string"
                }
            ],
            "name": "records",
            "outputs": [
                {
                    "internalType": "string",
                    "name": "",
                    "type": "string"
                }
            ],
            "stateMutability": "view",
            "type": "function"
        },
        {
            "inputs": [
                {
                    "internalType": "string",
                    "name": "name",
                    "type": "string"
                }
            ],
            "name": "register",
            "outputs": [],
            "stateMutability": "payable",
            "type": "function"
        },
        {
            "inputs": [
                {
                    "internalType": "address",
                    "name": "from",
                    "type": "address"
                },
                {
                    "internalType": "address",
                    "name": "to",
                    "type": "address"
                },
                {
                    "internalType": "uint256",
                    "name": "tokenId",
                    "type": "uint256"
                }
            ],
            "name": "safeTransferFrom",
            "outputs": [],
            "stateMutability": "nonpayable",
            "type": "function"
        },
        {
            "inputs": [
                {
                    "internalType": "address",
                    "name": "from",
                    "type": "address"
                },
                {
                    "internalType": "address",
                    "name": "to",
                    "type": "address"
                },
                {
                    "internalType": "uint256",
                    "name": "tokenId",
                    "type": "uint256"
                },
                {
                    "internalType": "bytes",
                    "name": "_data",
                    "type": "bytes"
                }
            ],
            "name": "safeTransferFrom",
            "outputs": [],
            "stateMutability": "nonpayable",
            "type": "function"
        },
        {
            "inputs": [
                {
                    "internalType": "address",
                    "name": "operator",
                    "type": "address"
                },
                {
                    "internalType": "bool",
                    "name": "approved",
                    "type": "bool"
                }
            ],
            "name": "setApprovalForAll",
            "outputs": [],
            "stateMutability": "nonpayable",
            "type": "function"
        },
        {
            "inputs": [
                {
                    "internalType": "string",
                    "name": "name",
                    "type": "string"
                },
                {
                    "internalType": "string",
                    "name": "record",
                    "type": "string"
                }
            ],
            "name": "setRecord",
            "outputs": [],
            "stateMutability": "nonpayable",
            "type": "function"
        },
        {
            "inputs": [
                {
                    "internalType": "bytes4",
                    "name": "interfaceId",
                    "type": "bytes4"
                }
            ],
            "name": "supportsInterface",
            "outputs": [
                {
                    "internalType": "bool",
                    "name": "",
                    "type": "bool"
                }
            ],
            "stateMutability": "view",
            "type": "function"
        },
        {
            "inputs": [],
            "name": "symbol",
            "outputs": [
                {
                    "internalType": "string",
                    "name": "",
                    "type": "string"
                }
            ],
            "stateMutability": "view",
            "type": "function"
        },
        {
            "inputs": [
                {
                    "internalType": "uint256",
                    "name": "tokenId",
                    "type": "uint256"
                }
            ],
            "name": "tokenURI",
            "outputs": [
                {
                    "internalType": "string",
                    "name": "",
                    "type": "string"
                }
            ],
            "stateMutability": "view",
            "type": "function"
        },
        {
            "inputs": [
                {
                    "internalType": "address",
                    "name": "from",
                    "type": "address"
                },
                {
                    "internalType": "address",
                    "name": "to",
                    "type": "address"
                },
                {
                    "internalType": "uint256",
                    "name": "tokenId",
                    "type": "uint256"
                }
            ],
            "name": "transferFrom",
            "outputs": [],
            "stateMutability": "nonpayable",
            "type": "function"
        },
        {
            "inputs": [
                {
                    "internalType": "string",
                    "name": "_name",
                    "type": "string"
                }
            ],
            "name": "valid",
            "outputs": [
                {
                    "internalType": "bool",
                    "name": "",
                    "type": "bool"
                }
            ],
            "stateMutability": "pure",
            "type": "function"
        },
        {
            "inputs": [],
            "name": "withdraw",
            "outputs": [],
            "stateMutability": "nonpayable",
            "type": "function"
        }
    ],
    "bytecode": "0x6080604052604051806108a0016040528061086b81526020016200586b61086b9139600a908051906020019062000038929190620002c8565b506040518060400160405280600d81526020017f3c2f746578743e3c2f7376673e00000000000000000000000000000000000000815250600b908051906020019062000086929190620002c8565b50604051620060d6380380620060d68339818101604052810190620000ac9190620003ea565b6040518060400160405280600a81526020017f4d6163726f426c6f636b000000000000000000000000000000000000000000008152506040518060400160405280600581526020017f4d4143524f000000000000000000000000000000000000000000000000000000815250816000908051906020019062000130929190620002c8565b50806001908051906020019062000149929190620002c8565b50505033600960006101000a81548173ffffffffffffffffffffffffffffffffffffffff021916908373ffffffffffffffffffffffffffffffffffffffff1602179055508060089080519060200190620001a5929190620002c8565b50620001f26040518060400160405280601881526020017f2573206e616d652073657276696365206465706c6f796564000000000000000081525082620001f960201b62001ecc1760201c565b5062000637565b6200029b82826040516024016200021292919062000470565b6040516020818303038152906040527f4b5c4277000000000000000000000000000000000000000000000000000000007bffffffffffffffffffffffffffffffffffffffffffffffffffffffff19166020820180517bffffffffffffffffffffffffffffffffffffffffffffffffffffffff83818316178352505050506200029f60201b60201c565b5050565b60008151905060006a636f6e736f6c652e6c6f679050602083016000808483855afa5050505050565b828054620002d6906200055c565b90600052602060002090601f016020900481019282620002fa576000855562000346565b82601f106200031557805160ff191683800117855562000346565b8280016001018555821562000346579182015b828111156200034557825182559160200191906001019062000328565b5b50905062000355919062000359565b5090565b5b80821115620003745760008160009055506001016200035a565b5090565b60006200038f6200038984620004d4565b620004ab565b905082815260208101848484011115620003a857600080fd5b620003b584828562000526565b509392505050565b600082601f830112620003cf57600080fd5b8151620003e184826020860162000378565b91505092915050565b600060208284031215620003fd57600080fd5b600082015167ffffffffffffffff8111156200041857600080fd5b6200042684828501620003bd565b91505092915050565b60006200043c826200050a565b62000448818562000515565b93506200045a81856020860162000526565b620004658162000626565b840191505092915050565b600060408201905081810360008301526200048c81856200042f565b90508181036020830152620004a281846200042f565b90509392505050565b6000620004b7620004ca565b9050620004c5828262000592565b919050565b6000604051905090565b600067ffffffffffffffff821115620004f257620004f1620005f7565b5b620004fd8262000626565b9050602081019050919050565b600081519050919050565b600082825260208201905092915050565b60005b838110156200054657808201518184015260208101905062000529565b8381111562000556576000848401525b50505050565b600060028204905060018216806200057557607f821691505b602082108114156200058c576200058b620005c8565b5b50919050565b6200059d8262000626565b810181811067ffffffffffffffff82111715620005bf57620005be620005f7565b5b80604052505050565b7f4e487b7100000000000000000000000000000000000000000000000000000000600052602260045260246000fd5b7f4e487b7100000000000000000000000000000000000000000000000000000000600052604160045260246000fd5b6000601f19601f8301169050919050565b61522480620006476000396000f3fe6080604052600436106101c25760003560e01c80638f32d59b116100f7578063bf40fac111610095578063f2c298be11610064578063f2c298be146106b2578063fb825e5f146106ce578063fc151a0d146106f9578063fe2c619814610736576101c2565b8063bf40fac1146105d2578063c1880a981461060f578063c87b56dd14610638578063e985e9c514610675576101c2565b8063a22cb465116100d1578063a22cb4651461052a578063a53735d514610553578063b6f220ba1461057e578063b88d4fde146105a9576101c2565b80638f32d59b1461049757806395d89b41146104c25780639791c097146104ed576101c2565b80632644923511610164578063541e771d1161013e578063541e771d146103b55780636352211e146103f257806370a082311461042f5780638da5cb5b1461046c576101c2565b806326449235146103385780633ccfd60b1461037557806342842e0e1461038c576101c2565b8063095ea7b3116101a0578063095ea7b31461026c57806311dd88451461029557806323b872dd146102d25780632638236d146102fb576101c2565b806301ffc9a7146101c757806306fdde0314610204578063081812fc1461022f575b600080fd5b3480156101d357600080fd5b506101ee60048036038101906101e991906137b2565b610773565b6040516101fb91906140ff565b60405180910390f35b34801561021057600080fd5b50610219610855565b604051610226919061413e565b60405180910390f35b34801561023b57600080fd5b50610256600480360381019061025191906138ff565b6108e7565b604051610263919061405b565b60405180910390f35b34801561027857600080fd5b50610293600480360381019061028e9190613776565b61096c565b005b3480156102a157600080fd5b506102bc60048036038101906102b79190613804565b610a84565b6040516102c9919061413e565b60405180910390f35b3480156102de57600080fd5b506102f960048036038101906102f49190613670565b610b37565b005b34801561030757600080fd5b50610322600480360381019061031d91906138ff565b610b97565b60405161032f919061413e565b60405180910390f35b34801561034457600080fd5b5061035f600480360381019061035a91906138be565b610c43565b60405161036c919061405b565b60405180910390f35b34801561038157600080fd5b5061038a610c8c565b005b34801561039857600080fd5b506103b360048036038101906103ae9190613670565b610d52565b005b3480156103c157600080fd5b506103dc60048036038101906103d791906138be565b610d72565b6040516103e9919061413e565b60405180910390f35b3480156103fe57600080fd5b50610419600480360381019061041491906138ff565b610e28565b604051610426919061405b565b60405180910390f35b34801561043b57600080fd5b506104566004803603810190610451919061360b565b610eda565b60405161046391906144c6565b60405180910390f35b34801561047857600080fd5b50610481610f92565b60405161048e9190614076565b60405180910390f35b3480156104a357600080fd5b506104ac610fb8565b6040516104b991906140ff565b60405180910390f35b3480156104ce57600080fd5b506104d7611010565b6040516104e4919061413e565b60405180910390f35b3480156104f957600080fd5b50610514600480360381019061050f9190613804565b6110a2565b60405161052191906140ff565b60405180910390f35b34801561053657600080fd5b50610551600480360381019061054c919061373a565b611156565b005b34801561055f57600080fd5b5061056861116c565b604051610575919061413e565b60405180910390f35b34801561058a57600080fd5b506105936111fa565b6040516105a091906140dd565b60405180910390f35b3480156105b557600080fd5b506105d060048036038101906105cb91906136bf565b6112d3565b005b3480156105de57600080fd5b506105f960048036038101906105f49190613804565b611335565b604051610606919061405b565b60405180910390f35b34801561061b57600080fd5b5061063660048036038101906106319190613849565b611380565b005b34801561064457600080fd5b5061065f600480360381019061065a91906138ff565b61145b565b60405161066c919061413e565b60405180910390f35b34801561068157600080fd5b5061069c60048036038101906106979190613634565b6115ad565b6040516106a991906140ff565b60405180910390f35b6106cc60048036038101906106c79190613804565b611641565b005b3480156106da57600080fd5b506106e3611b3a565b6040516106f091906140dd565b60405180910390f35b34801561070557600080fd5b50610720600480360381019061071b91906138ff565b611d50565b60405161072d919061413e565b60405180910390f35b34801561074257600080fd5b5061075d60048036038101906107589190613804565b611df0565b60405161076a91906144c6565b60405180910390f35b60007f80ac58cd000000000000000000000000000000000000000000000000000000007bffffffffffffffffffffffffffffffffffffffffffffffffffffffff1916827bffffffffffffffffffffffffffffffffffffffffffffffffffffffff1916148061083e57507f5b5e139f000000000000000000000000000000000000000000000000000000007bffffffffffffffffffffffffffffffffffffffffffffffffffffffff1916827bffffffffffffffffffffffffffffffffffffffffffffffffffffffff1916145b8061084e575061084d82611f68565b5b9050919050565b606060008054610864906147f2565b80601f0160208091040260200160405190810160405280929190818152602001828054610890906147f2565b80156108dd5780601f106108b2576101008083540402835291602001916108dd565b820191906000526020600020905b8154815290600101906020018083116108c057829003601f168201915b5050505050905090565b60006108f282611fd2565b610931576040517f08c379a000000000000000000000000000000000000000000000000000000000815260040161092890614426565b60405180910390fd5b6004600083815260200190815260200160002060009054906101000a900473ffffffffffffffffffffffffffffffffffffffff169050919050565b600061097782610e28565b90508073ffffffffffffffffffffffffffffffffffffffff168373ffffffffffffffffffffffffffffffffffffffff1614156109e8576040517f08c379a00000000000000000000000000000000000000000000000000000000081526004016109df90614466565b60405180910390fd5b8073ffffffffffffffffffffffffffffffffffffffff16610a0761203e565b73ffffffffffffffffffffffffffffffffffffffff161480610a365750610a3581610a3061203e565b6115ad565b5b610a75576040517f08c379a0000000000000000000000000000000000000000000000000000000008152600401610a6c90614346565b60405180910390fd5b610a7f8383612046565b505050565b6060600f8383604051610a98929190613f28565b90815260200160405180910390208054610ab1906147f2565b80601f0160208091040260200160405190810160405280929190818152602001828054610add906147f2565b8015610b2a5780601f10610aff57610100808354040283529160200191610b2a565b820191906000526020600020905b815481529060010190602001808311610b0d57829003601f168201915b5050505050905092915050565b610b48610b4261203e565b826120ff565b610b87576040517f08c379a0000000000000000000000000000000000000000000000000000000008152600401610b7e90614486565b60405180910390fd5b610b928383836121dd565b505050565b600e8181548110610ba757600080fd5b906000526020600020016000915090508054610bc2906147f2565b80601f0160208091040260200160405190810160405280929190818152602001828054610bee906147f2565b8015610c3b5780601f10610c1057610100808354040283529160200191610c3b565b820191906000526020600020905b815481529060010190602001808311610c1e57829003601f168201915b505050505081565b600c818051602081018201805184825260208301602085012081835280955050505050506000915054906101000a900473ffffffffffffffffffffffffffffffffffffffff1681565b610c94610fb8565b610c9d57600080fd5b600047905060003373ffffffffffffffffffffffffffffffffffffffff1682604051610cc890614046565b60006040518083038185875af1925050503d8060008114610d05576040519150601f19603f3d011682016040523d82523d6000602084013e610d0a565b606091505b5050905080610d4e576040517f08c379a0000000000000000000000000000000000000000000000000000000008152600401610d45906143c6565b60405180910390fd5b5050565b610d6d838383604051806020016040528060008152506112d3565b505050565b600f818051602081018201805184825260208301602085012081835280955050505050506000915090508054610da7906147f2565b80601f0160208091040260200160405190810160405280929190818152602001828054610dd3906147f2565b8015610e205780601f10610df557610100808354040283529160200191610e20565b820191906000526020600020905b815481529060010190602001808311610e0357829003601f168201915b505050505081565b6000806002600084815260200190815260200160002060009054906101000a900473ffffffffffffffffffffffffffffffffffffffff169050600073ffffffffffffffffffffffffffffffffffffffff168173ffffffffffffffffffffffffffffffffffffffff161415610ed1576040517f08c379a0000000000000000000000000000000000000000000000000000000008152600401610ec890614386565b60405180910390fd5b80915050919050565b60008073ffffffffffffffffffffffffffffffffffffffff168273ffffffffffffffffffffffffffffffffffffffff161415610f4b576040517f08c379a0000000000000000000000000000000000000000000000000000000008152600401610f4290614366565b60405180910390fd5b600360008373ffffffffffffffffffffffffffffffffffffffff1673ffffffffffffffffffffffffffffffffffffffff168152602001908152602001600020549050919050565b600960009054906101000a900473ffffffffffffffffffffffffffffffffffffffff1681565b6000600960009054906101000a900473ffffffffffffffffffffffffffffffffffffffff1673ffffffffffffffffffffffffffffffffffffffff163373ffffffffffffffffffffffffffffffffffffffff1614905090565b60606001805461101f906147f2565b80601f016020809104026020016040519081016040528092919081815260200182805461104b906147f2565b80156110985780601f1061106d57610100808354040283529160200191611098565b820191906000526020600020905b81548152906001019060200180831161107b57829003601f168201915b5050505050905090565b600060036110f384848080601f016020809104026020016040519081016040528093929190818152602001838380828437600081840152601f19601f82011690508083019250505050505050612444565b1015801561114e5750600a61114b84848080601f016020809104026020016040519081016040528093929190818152602001838380828437600081840152601f19601f82011690508083019250505050505050612444565b11155b905092915050565b61116861116161203e565b838361261f565b5050565b60088054611179906147f2565b80601f01602080910402602001604051908101604052809291908181526020018280546111a5906147f2565b80156111f25780601f106111c7576101008083540402835291602001916111f2565b820191906000526020600020905b8154815290600101906020018083116111d557829003601f168201915b505050505081565b6060600e805480602002602001604051908101604052809291908181526020016000905b828210156112ca57838290600052602060002001805461123d906147f2565b80601f0160208091040260200160405190810160405280929190818152602001828054611269906147f2565b80156112b65780601f1061128b576101008083540402835291602001916112b6565b820191906000526020600020905b81548152906001019060200180831161129957829003601f168201915b50505050508152602001906001019061121e565b50505050905090565b6112e46112de61203e565b836120ff565b611323576040517f08c379a000000000000000000000000000000000000000000000000000000000815260040161131a90614486565b60405180910390fd5b61132f8484848461278c565b50505050565b6000600c8383604051611349929190613f28565b908152602001604051809103902060009054906101000a900473ffffffffffffffffffffffffffffffffffffffff16905092915050565b3373ffffffffffffffffffffffffffffffffffffffff16600c85856040516113a9929190613f28565b908152602001604051809103902060009054906101000a900473ffffffffffffffffffffffffffffffffffffffff1673ffffffffffffffffffffffffffffffffffffffff1614611425576040517f82b4290000000000000000000000000000000000000000000000000000000000815260040160405180910390fd5b8181600f8686604051611439929190613f28565b9081526020016040518091039020919061145492919061335f565b5050505050565b606061146682611fd2565b6114a5576040517f08c379a000000000000000000000000000000000000000000000000000000000815260040161149c90614406565b60405180910390fd5b60006006600084815260200190815260200160002080546114c5906147f2565b80601f01602080910402602001604051908101604052809291908181526020018280546114f1906147f2565b801561153e5780601f106115135761010080835404028352916020019161153e565b820191906000526020600020905b81548152906001019060200180831161152157829003601f168201915b50505050509050600061154f6127e8565b90506000815114156115655781925050506115a8565b60008251111561159a578082604051602001611582929190613f72565b604051602081830303815290604052925050506115a8565b6115a3846127ff565b925050505b919050565b6000600560008473ffffffffffffffffffffffffffffffffffffffff1673ffffffffffffffffffffffffffffffffffffffff16815260200190815260200160002060008373ffffffffffffffffffffffffffffffffffffffff1673ffffffffffffffffffffffffffffffffffffffff16815260200190815260200160002060009054906101000a900460ff16905092915050565b600073ffffffffffffffffffffffffffffffffffffffff16600c838360405161166b929190613f28565b908152602001604051809103902060009054906101000a900473ffffffffffffffffffffffffffffffffffffffff1673ffffffffffffffffffffffffffffffffffffffff16146116e7576040517f3a81d6fc00000000000000000000000000000000000000000000000000000000815260040160405180910390fd5b6116f182826110a2565b6117345781816040517f7f19f48d00000000000000000000000000000000000000000000000000000000815260040161172b92919061411a565b60405180910390fd5b60006117408383611df0565b905080341015611785576040517f08c379a000000000000000000000000000000000000000000000000000000000815260040161177c906144a6565b60405180910390fd5b60008383600860405160200161179d93929190613f41565b60405160208183030381529060405290506000600a82600b6040516020016117c793929190613f96565b6040516020818303038152906040529050600e829080600181540180825580915050600190039060005260206000200160009091909190915090805190602001906118139291906133e5565b50600061182060076128a6565b9050600061187187878080601f016020809104026020016040519081016040528093929190818152602001838380828437600081840152601f19601f82011690508083019250505050505050612444565b9050600061187e826128b4565b90506119726040518060600160405280603481526020016150e26034913989898080601f016020809104026020016040519081016040528093929190818152602001838380828437600081840152601f19601f82011690508083019250505050505050600880546118ee906147f2565b80601f016020809104026020016040519081016040528092919081815260200182805461191a906147f2565b80156119675780601f1061193c57610100808354040283529160200191611967565b820191906000526020600020905b81548152906001019060200180831161194a57829003601f168201915b505050505086612a61565b60006119a88661198187612b03565b8460405160200161199493929190613fc7565b604051602081830303815290604052612b03565b90506000816040516020016119bd9190614024565b60405160208183030381529060405290506119ef6040518060600160405280603981526020016150a960399139612cc1565b611a2e6040518060400160405280600e81526020017f46696e616c20746f6b656e55524900000000000000000000000000000000000081525082611ecc565b611a4f60405180606001604052806039815260200161511660399139612cc1565b611a593386612d5a565b611a638582612d78565b33600c8b8b604051611a76929190613f28565b908152602001604051809103902060006101000a81548173ffffffffffffffffffffffffffffffffffffffff021916908373ffffffffffffffffffffffffffffffffffffffff160217905550611b016040518060400160405280601d81526020017f2573206861207265676973747261646f20756e20646f6d696e696f3a2000000081525033612dec565b8989600d60008881526020019081526020016000209190611b2392919061335f565b50611b2e6007612e88565b50505050505050505050565b6060611b5d6040518060600160405280603581526020016151ba60359139612cc1565b6000611b6960076128a6565b67ffffffffffffffff811115611ba8577f4e487b7100000000000000000000000000000000000000000000000000000000600052604160045260246000fd5b604051908082528060200260200182016040528015611bdb57816020015b6060815260200190600190039081611bc65790505b50905060005b611beb60076128a6565b811015611d4857600d60008281526020019081526020016000208054611c10906147f2565b80601f0160208091040260200160405190810160405280929190818152602001828054611c3c906147f2565b8015611c895780601f10611c5e57610100808354040283529160200191611c89565b820191906000526020600020905b815481529060010190602001808311611c6c57829003601f168201915b5050505050828281518110611cc7577f4e487b7100000000000000000000000000000000000000000000000000000000600052603260045260246000fd5b6020026020010181905250611d356040518060600160405280602b815260200161514f602b913982848481518110611d28577f4e487b7100000000000000000000000000000000000000000000000000000000600052603260045260246000fd5b6020026020010151612e9e565b8080611d4090614855565b915050611be1565b508091505090565b600d6020528060005260406000206000915090508054611d6f906147f2565b80601f0160208091040260200160405190810160405280929190818152602001828054611d9b906147f2565b8015611de85780601f10611dbd57610100808354040283529160200191611de8565b820191906000526020600020905b815481529060010190602001808311611dcb57829003601f168201915b505050505081565b600080611e4084848080601f016020809104026020016040519081016040528093929190818152602001838380828437600081840152601f19601f82011690508083019250505050505050612444565b905060008111611e85576040517f08c379a0000000000000000000000000000000000000000000000000000000008152600401611e7c90614266565b60405180910390fd5b6003811415611e9f576706f05b59d3b20000915050611ec6565b6004811415611eb957670429d069189e0000915050611ec6565b67016345785d8a00009150505b92915050565b611f648282604051602401611ee2929190614190565b6040516020818303038152906040527f4b5c4277000000000000000000000000000000000000000000000000000000007bffffffffffffffffffffffffffffffffffffffffffffffffffffffff19166020820180517bffffffffffffffffffffffffffffffffffffffffffffffffffffffff8381831617835250505050612f3d565b5050565b60007f01ffc9a7000000000000000000000000000000000000000000000000000000007bffffffffffffffffffffffffffffffffffffffffffffffffffffffff1916827bffffffffffffffffffffffffffffffffffffffffffffffffffffffff1916149050919050565b60008073ffffffffffffffffffffffffffffffffffffffff166002600084815260200190815260200160002060009054906101000a900473ffffffffffffffffffffffffffffffffffffffff1673ffffffffffffffffffffffffffffffffffffffff1614159050919050565b600033905090565b816004600083815260200190815260200160002060006101000a81548173ffffffffffffffffffffffffffffffffffffffff021916908373ffffffffffffffffffffffffffffffffffffffff160217905550808273ffffffffffffffffffffffffffffffffffffffff166120b983610e28565b73ffffffffffffffffffffffffffffffffffffffff167f8c5be1e5ebec7d5bd14f71427d1e84f3dd0314c0f7b2291e5b200ac8c7c3b92560405160405180910390a45050565b600061210a82611fd2565b612149576040517f08c379a000000000000000000000000000000000000000000000000000000000815260040161214090614326565b60405180910390fd5b600061215483610e28565b90508073ffffffffffffffffffffffffffffffffffffffff168473ffffffffffffffffffffffffffffffffffffffff1614806121c357508373ffffffffffffffffffffffffffffffffffffffff166121ab846108e7565b73ffffffffffffffffffffffffffffffffffffffff16145b806121d457506121d381856115ad565b5b91505092915050565b8273ffffffffffffffffffffffffffffffffffffffff166121fd82610e28565b73ffffffffffffffffffffffffffffffffffffffff1614612253576040517f08c379a000000000000000000000000000000000000000000000000000000000815260040161224a906142a6565b60405180910390fd5b600073ffffffffffffffffffffffffffffffffffffffff168273ffffffffffffffffffffffffffffffffffffffff1614156122c3576040517f08c379a00000000000000000000000000000000000000000000000000000000081526004016122ba906142e6565b60405180910390fd5b6122ce838383612f66565b6122d9600082612046565b6001600360008573ffffffffffffffffffffffffffffffffffffffff1673ffffffffffffffffffffffffffffffffffffffff168152602001908152602001600020600082825461232991906146f6565b925050819055506001600360008473ffffffffffffffffffffffffffffffffffffffff1673ffffffffffffffffffffffffffffffffffffffff16815260200190815260200160002060008282546123809190614615565b92505081905550816002600083815260200190815260200160002060006101000a81548173ffffffffffffffffffffffffffffffffffffffff021916908373ffffffffffffffffffffffffffffffffffffffff160217905550808273ffffffffffffffffffffffffffffffffffffffff168473ffffffffffffffffffffffffffffffffffffffff167fddf252ad1be2c89b69c2b068fc378daa952ba7f163c4a11628f55a4df523b3ef60405160405180910390a461243f838383612f6b565b505050565b60008060008084519050600092505b80821015612614576000858381518110612496577f4e487b7100000000000000000000000000000000000000000000000000000000600052603260045260246000fd5b602001015160f81c60f81b9050608060f81b817effffffffffffffffffffffffffffffffffffffffffffffffffffffffffffff191610156124e5576001836124de9190614615565b9250612600565b60e060f81b817effffffffffffffffffffffffffffffffffffffffffffffffffffffffffffff19161015612527576002836125209190614615565b92506125ff565b60f060f81b817effffffffffffffffffffffffffffffffffffffffffffffffffffffffffffff19161015612569576003836125629190614615565b92506125fe565b60f8801b817effffffffffffffffffffffffffffffffffffffffffffffffffffffffffffff191610156125aa576004836125a39190614615565b92506125fd565b60fc60f81b817effffffffffffffffffffffffffffffffffffffffffffffffffffffffffffff191610156125ec576005836125e59190614615565b92506125fc565b6006836125f99190614615565b92505b5b5b5b5b50828061260c90614855565b935050612453565b829350505050919050565b8173ffffffffffffffffffffffffffffffffffffffff168373ffffffffffffffffffffffffffffffffffffffff16141561268e576040517f08c379a000000000000000000000000000000000000000000000000000000000815260040161268590614306565b60405180910390fd5b80600560008573ffffffffffffffffffffffffffffffffffffffff1673ffffffffffffffffffffffffffffffffffffffff16815260200190815260200160002060008473ffffffffffffffffffffffffffffffffffffffff1673ffffffffffffffffffffffffffffffffffffffff16815260200190815260200160002060006101000a81548160ff0219169083151502179055508173ffffffffffffffffffffffffffffffffffffffff168373ffffffffffffffffffffffffffffffffffffffff167f17307eab39ab6107e8899845ad3d59bd9653f200f220920489ca2b5937696c318360405161277f91906140ff565b60405180910390a3505050565b6127978484846121dd565b6127a384848484612f70565b6127e2576040517f08c379a00000000000000000000000000000000000000000000000000000000081526004016127d990614286565b60405180910390fd5b50505050565b606060405180602001604052806000815250905090565b606061280a82611fd2565b612849576040517f08c379a000000000000000000000000000000000000000000000000000000000815260040161284090614446565b60405180910390fd5b60006128536127e8565b90506000815111612873576040518060200160405280600081525061289e565b8061287d846128b4565b60405160200161288e929190613f72565b6040516020818303038152906040525b915050919050565b600081600001549050919050565b606060008214156128fc576040518060400160405280600181526020017f30000000000000000000000000000000000000000000000000000000000000008152509050612a5c565b600082905060005b6000821461292e57808061291790614855565b915050600a82612927919061466b565b9150612904565b60008167ffffffffffffffff811115612970577f4e487b7100000000000000000000000000000000000000000000000000000000600052604160045260246000fd5b6040519080825280601f01601f1916602001820160405280156129a25781602001600182028036833780820191505090505b5090505b60008514612a55576001826129bb91906146f6565b9150600a856129ca919061489e565b60306129d69190614615565b60f81b818381518110612a12577f4e487b7100000000000000000000000000000000000000000000000000000000600052603260045260246000fd5b60200101907effffffffffffffffffffffffffffffffffffffffffffffffffffffffffffff1916908160001a905350600a85612a4e919061466b565b94506129a6565b8093505050505b919050565b612afd84848484604051602401612a7b94939291906141c7565b6040516020818303038152906040527f9fd009f5000000000000000000000000000000000000000000000000000000007bffffffffffffffffffffffffffffffffffffffffffffffffffffffff19166020820180517bffffffffffffffffffffffffffffffffffffffffffffffffffffffff8381831617835250505050612f3d565b50505050565b60606000825190506000811415612b2c5760405180602001604052806000815250915050612cbc565b60006003600283612b3d9190614615565b612b47919061466b565b6004612b53919061469c565b90506000602082612b649190614615565b67ffffffffffffffff811115612ba3577f4e487b7100000000000000000000000000000000000000000000000000000000600052604160045260246000fd5b6040519080825280601f01601f191660200182016040528015612bd55781602001600182028036833780820191505090505b509050600060405180606001604052806040815260200161517a604091399050600181016020830160005b86811015612c795760038101905062ffffff818a015116603f8160121c168401518060081b905060ff603f83600c1c1686015116810190508060081b905060ff603f8360061c1686015116810190508060081b905060ff603f831686015116810190508060e01b90508084526004840193505050612c00565b506003860660018114612c935760028114612ca357612cae565b613d3d60f01b6002830352612cae565b603d60f81b60018303525b508484525050819450505050505b919050565b612d5781604051602401612cd5919061413e565b6040516020818303038152906040527f41304fac000000000000000000000000000000000000000000000000000000007bffffffffffffffffffffffffffffffffffffffffffffffffffffffff19166020820180517bffffffffffffffffffffffffffffffffffffffffffffffffffffffff8381831617835250505050612f3d565b50565b612d74828260405180602001604052806000815250613107565b5050565b612d8182611fd2565b612dc0576040517f08c379a0000000000000000000000000000000000000000000000000000000008152600401612db7906143a6565b60405180910390fd5b80600660008481526020019081526020016000209080519060200190612de79291906133e5565b505050565b612e848282604051602401612e02929190614160565b6040516020818303038152906040527f319af333000000000000000000000000000000000000000000000000000000007bffffffffffffffffffffffffffffffffffffffffffffffffffffffff19166020820180517bffffffffffffffffffffffffffffffffffffffffffffffffffffffff8381831617835250505050612f3d565b5050565b6001816000016000828254019250508190555050565b612f38838383604051602401612eb693929190614221565b6040516020818303038152906040527fa3f5c739000000000000000000000000000000000000000000000000000000007bffffffffffffffffffffffffffffffffffffffffffffffffffffffff19166020820180517bffffffffffffffffffffffffffffffffffffffffffffffffffffffff8381831617835250505050612f3d565b505050565b60008151905060006a636f6e736f6c652e6c6f679050602083016000808483855afa5050505050565b505050565b505050565b6000612f918473ffffffffffffffffffffffffffffffffffffffff16613162565b156130fa578373ffffffffffffffffffffffffffffffffffffffff1663150b7a02612fba61203e565b8786866040518563ffffffff1660e01b8152600401612fdc9493929190614091565b602060405180830381600087803b158015612ff657600080fd5b505af192505050801561302757506040513d601f19601f8201168201806040525081019061302491906137db565b60015b6130aa573d8060008114613057576040519150601f19603f3d011682016040523d82523d6000602084013e61305c565b606091505b506000815114156130a2576040517f08c379a000000000000000000000000000000000000000000000000000000000815260040161309990614286565b60405180910390fd5b805181602001fd5b63150b7a0260e01b7bffffffffffffffffffffffffffffffffffffffffffffffffffffffff1916817bffffffffffffffffffffffffffffffffffffffffffffffffffffffff1916149150506130ff565b600190505b949350505050565b6131118383613185565b61311e6000848484612f70565b61315d576040517f08c379a000000000000000000000000000000000000000000000000000000000815260040161315490614286565b60405180910390fd5b505050565b6000808273ffffffffffffffffffffffffffffffffffffffff163b119050919050565b600073ffffffffffffffffffffffffffffffffffffffff168273ffffffffffffffffffffffffffffffffffffffff1614156131f5576040517f08c379a00000000000000000000000000000000000000000000000000000000081526004016131ec906143e6565b60405180910390fd5b6131fe81611fd2565b1561323e576040517f08c379a0000000000000000000000000000000000000000000000000000000008152600401613235906142c6565b60405180910390fd5b61324a60008383612f66565b6001600360008473ffffffffffffffffffffffffffffffffffffffff1673ffffffffffffffffffffffffffffffffffffffff168152602001908152602001600020600082825461329a9190614615565b92505081905550816002600083815260200190815260200160002060006101000a81548173ffffffffffffffffffffffffffffffffffffffff021916908373ffffffffffffffffffffffffffffffffffffffff160217905550808273ffffffffffffffffffffffffffffffffffffffff16600073ffffffffffffffffffffffffffffffffffffffff167fddf252ad1be2c89b69c2b068fc378daa952ba7f163c4a11628f55a4df523b3ef60405160405180910390a461335b60008383612f6b565b5050565b82805461336b906147f2565b90600052602060002090601f01602090048101928261338d57600085556133d4565b82601f106133a657803560ff19168380011785556133d4565b828001600101855582156133d4579182015b828111156133d35782358255916020019190600101906133b8565b5b5090506133e1919061346b565b5090565b8280546133f1906147f2565b90600052602060002090601f016020900481019282613413576000855561345a565b82601f1061342c57805160ff191683800117855561345a565b8280016001018555821561345a579182015b8281111561345957825182559160200191906001019061343e565b5b509050613467919061346b565b5090565b5b8082111561348457600081600090555060010161346c565b5090565b600061349b61349684614506565b6144e1565b9050828152602081018484840111156134b357600080fd5b6134be8482856147b0565b509392505050565b60006134d96134d484614537565b6144e1565b9050828152602081018484840111156134f157600080fd5b6134fc8482856147b0565b509392505050565b6000813590506135138161504c565b92915050565b60008135905061352881615063565b92915050565b60008135905061353d8161507a565b92915050565b6000815190506135528161507a565b92915050565b600082601f83011261356957600080fd5b8135613579848260208601613488565b91505092915050565b60008083601f84011261359457600080fd5b8235905067ffffffffffffffff8111156135ad57600080fd5b6020830191508360018202830111156135c557600080fd5b9250929050565b600082601f8301126135dd57600080fd5b81356135ed8482602086016134c6565b91505092915050565b60008135905061360581615091565b92915050565b60006020828403121561361d57600080fd5b600061362b84828501613504565b91505092915050565b6000806040838503121561364757600080fd5b600061365585828601613504565b925050602061366685828601613504565b9150509250929050565b60008060006060848603121561368557600080fd5b600061369386828701613504565b93505060206136a486828701613504565b92505060406136b5868287016135f6565b9150509250925092565b600080600080608085870312156136d557600080fd5b60006136e387828801613504565b94505060206136f487828801613504565b9350506040613705878288016135f6565b925050606085013567ffffffffffffffff81111561372257600080fd5b61372e87828801613558565b91505092959194509250565b6000806040838503121561374d57600080fd5b600061375b85828601613504565b925050602061376c85828601613519565b9150509250929050565b6000806040838503121561378957600080fd5b600061379785828601613504565b92505060206137a8858286016135f6565b9150509250929050565b6000602082840312156137c457600080fd5b60006137d28482850161352e565b91505092915050565b6000602082840312156137ed57600080fd5b60006137fb84828501613543565b91505092915050565b6000806020838503121561381757600080fd5b600083013567ffffffffffffffff81111561383157600080fd5b61383d85828601613582565b92509250509250929050565b6000806000806040858703121561385f57600080fd5b600085013567ffffffffffffffff81111561387957600080fd5b61388587828801613582565b9450945050602085013567ffffffffffffffff8111156138a457600080fd5b6138b087828801613582565b925092505092959194509250565b6000602082840312156138d057600080fd5b600082013567ffffffffffffffff8111156138ea57600080fd5b6138f6848285016135cc565b91505092915050565b60006020828403121561391157600080fd5b600061391f848285016135f6565b91505092915050565b60006139348383613a69565b905092915050565b6139458161473c565b82525050565b6139548161472a565b82525050565b60006139658261458d565b61396f81856145bb565b93508360208202850161398185614568565b8060005b858110156139bd578484038952815161399e8582613928565b94506139a9836145ae565b925060208a01995050600181019050613985565b50829750879550505050505092915050565b6139d88161474e565b82525050565b60006139e982614598565b6139f381856145cc565b9350613a038185602086016147bf565b613a0c8161498b565b840191505092915050565b6000613a2383856145f9565b9350613a308385846147b0565b613a398361498b565b840190509392505050565b6000613a50838561460a565b9350613a5d8385846147b0565b82840190509392505050565b6000613a74826145a3565b613a7e81856145e8565b9350613a8e8185602086016147bf565b613a978161498b565b840191505092915050565b6000613aad826145a3565b613ab781856145f9565b9350613ac78185602086016147bf565b613ad08161498b565b840191505092915050565b6000613ae6826145a3565b613af0818561460a565b9350613b008185602086016147bf565b80840191505092915050565b60008154613b19816147f2565b613b23818661460a565b94506001821660008114613b3e5760018114613b4f57613b82565b60ff19831686528186019350613b82565b613b5885614578565b60005b83811015613b7a57815481890152600182019150602081019050613b5b565b838801955050505b50505092915050565b6000613b98600a836145f9565b9150613ba38261499c565b602082019050919050565b6000613bbb6032836145f9565b9150613bc6826149c5565b604082019050919050565b6000613bde6025836145f9565b9150613be982614a14565b604082019050919050565b6000613c01601c836145f9565b9150613c0c82614a63565b602082019050919050565b6000613c246024836145f9565b9150613c2f82614a8c565b604082019050919050565b6000613c476019836145f9565b9150613c5282614adb565b602082019050919050565b6000613c6a602c836145f9565b9150613c7582614b04565b604082019050919050565b6000613c8d6038836145f9565b9150613c9882614b53565b604082019050919050565b6000613cb060018361460a565b9150613cbb82614ba2565b600182019050919050565b6000613cd3602a836145f9565b9150613cde82614bcb565b604082019050919050565b6000613cf66029836145f9565b9150613d0182614c1a565b604082019050919050565b6000613d19602e836145f9565b9150613d2482614c69565b604082019050919050565b6000613d3c60678361460a565b9150613d4782614cb8565b606782019050919050565b6000613d5f60028361460a565b9150613d6a82614d53565b600282019050919050565b6000613d826024836145f9565b9150613d8d82614d7c565b604082019050919050565b6000613da56020836145f9565b9150613db082614dcb565b602082019050919050565b6000613dc86031836145f9565b9150613dd382614df4565b604082019050919050565b6000613deb602c836145f9565b9150613df682614e43565b604082019050919050565b6000613e0e602f836145f9565b9150613e1982614e92565b604082019050919050565b6000613e31600a8361460a565b9150613e3c82614ee1565b600a82019050919050565b6000613e546021836145f9565b9150613e5f82614f0a565b604082019050919050565b6000613e77601d8361460a565b9150613e8282614f59565b601d82019050919050565b6000613e9a600c8361460a565b9150613ea582614f82565b600c82019050919050565b6000613ebd6000836145dd565b9150613ec882614fab565b600082019050919050565b6000613ee06031836145f9565b9150613eeb82614fae565b604082019050919050565b6000613f036025836145f9565b9150613f0e82614ffd565b604082019050919050565b613f22816147a6565b82525050565b6000613f35828486613a44565b91508190509392505050565b6000613f4e828587613a44565b9150613f5982613ca3565b9150613f658284613b0c565b9150819050949350505050565b6000613f7e8285613adb565b9150613f8a8284613adb565b91508190509392505050565b6000613fa28286613b0c565b9150613fae8285613adb565b9150613fba8284613b0c565b9150819050949350505050565b6000613fd282613e24565b9150613fde8286613adb565b9150613fe982613d2f565b9150613ff58285613adb565b915061400082613e8d565b915061400c8284613adb565b915061401782613d52565b9150819050949350505050565b600061402f82613e6a565b915061403b8284613adb565b915081905092915050565b600061405182613eb0565b9150819050919050565b6000602082019050614070600083018461394b565b92915050565b600060208201905061408b600083018461393c565b92915050565b60006080820190506140a6600083018761394b565b6140b3602083018661394b565b6140c06040830185613f19565b81810360608301526140d281846139de565b905095945050505050565b600060208201905081810360008301526140f7818461395a565b905092915050565b600060208201905061411460008301846139cf565b92915050565b60006020820190508181036000830152614135818486613a17565b90509392505050565b600060208201905081810360008301526141588184613aa2565b905092915050565b6000604082019050818103600083015261417a8185613aa2565b9050614189602083018461394b565b9392505050565b600060408201905081810360008301526141aa8185613aa2565b905081810360208301526141be8184613aa2565b90509392505050565b600060808201905081810360008301526141e18187613aa2565b905081810360208301526141f58186613aa2565b905081810360408301526142098185613aa2565b90506142186060830184613f19565b95945050505050565b6000606082019050818103600083015261423b8186613aa2565b905061424a6020830185613f19565b818103604083015261425c8184613aa2565b9050949350505050565b6000602082019050818103600083015261427f81613b8b565b9050919050565b6000602082019050818103600083015261429f81613bae565b9050919050565b600060208201905081810360008301526142bf81613bd1565b9050919050565b600060208201905081810360008301526142df81613bf4565b9050919050565b600060208201905081810360008301526142ff81613c17565b9050919050565b6000602082019050818103600083015261431f81613c3a565b9050919050565b6000602082019050818103600083015261433f81613c5d565b9050919050565b6000602082019050818103600083015261435f81613c80565b9050919050565b6000602082019050818103600083015261437f81613cc6565b9050919050565b6000602082019050818103600083015261439f81613ce9565b9050919050565b600060208201905081810360008301526143bf81613d0c565b9050919050565b600060208201905081810360008301526143df81613d75565b9050919050565b600060208201905081810360008301526143ff81613d98565b9050919050565b6000602082019050818103600083015261441f81613dbb565b9050919050565b6000602082019050818103600083015261443f81613dde565b9050919050565b6000602082019050818103600083015261445f81613e01565b9050919050565b6000602082019050818103600083015261447f81613e47565b9050919050565b6000602082019050818103600083015261449f81613ed3565b9050919050565b600060208201905081810360008301526144bf81613ef6565b9050919050565b60006020820190506144db6000830184613f19565b92915050565b60006144eb6144fc565b90506144f78282614824565b919050565b6000604051905090565b600067ffffffffffffffff8211156145215761452061495c565b5b61452a8261498b565b9050602081019050919050565b600067ffffffffffffffff8211156145525761455161495c565b5b61455b8261498b565b9050602081019050919050565b6000819050602082019050919050565b60008190508160005260206000209050919050565b600081519050919050565b600081519050919050565b600081519050919050565b6000602082019050919050565b600082825260208201905092915050565b600082825260208201905092915050565b600081905092915050565b600082825260208201905092915050565b600082825260208201905092915050565b600081905092915050565b6000614620826147a6565b915061462b836147a6565b9250827fffffffffffffffffffffffffffffffffffffffffffffffffffffffffffffffff038211156146605761465f6148cf565b5b828201905092915050565b6000614676826147a6565b9150614681836147a6565b925082614691576146906148fe565b5b828204905092915050565b60006146a7826147a6565b91506146b2836147a6565b9250817fffffffffffffffffffffffffffffffffffffffffffffffffffffffffffffffff04831182151516156146eb576146ea6148cf565b5b828202905092915050565b6000614701826147a6565b915061470c836147a6565b92508282101561471f5761471e6148cf565b5b828203905092915050565b600061473582614786565b9050919050565b600061474782614786565b9050919050565b60008115159050919050565b60007fffffffff0000000000000000000000000000000000000000000000000000000082169050919050565b600073ffffffffffffffffffffffffffffffffffffffff82169050919050565b6000819050919050565b82818337600083830152505050565b60005b838110156147dd5780820151818401526020810190506147c2565b838111156147ec576000848401525b50505050565b6000600282049050600182168061480a57607f821691505b6020821081141561481e5761481d61492d565b5b50919050565b61482d8261498b565b810181811067ffffffffffffffff8211171561484c5761484b61495c565b5b80604052505050565b6000614860826147a6565b91507fffffffffffffffffffffffffffffffffffffffffffffffffffffffffffffffff821415614893576148926148cf565b5b600182019050919050565b60006148a9826147a6565b91506148b4836147a6565b9250826148c4576148c36148fe565b5b828206905092915050565b7f4e487b7100000000000000000000000000000000000000000000000000000000600052601160045260246000fd5b7f4e487b7100000000000000000000000000000000000000000000000000000000600052601260045260246000fd5b7f4e487b7100000000000000000000000000000000000000000000000000000000600052602260045260246000fd5b7f4e487b7100000000000000000000000000000000000000000000000000000000600052604160045260246000fd5b6000601f19601f8301169050919050565b7f76616c6f72206e756c6f00000000000000000000000000000000000000000000600082015250565b7f4552433732313a207472616e7366657220746f206e6f6e20455243373231526560008201527f63656976657220696d706c656d656e7465720000000000000000000000000000602082015250565b7f4552433732313a207472616e736665722066726f6d20696e636f72726563742060008201527f6f776e6572000000000000000000000000000000000000000000000000000000602082015250565b7f4552433732313a20746f6b656e20616c7265616479206d696e74656400000000600082015250565b7f4552433732313a207472616e7366657220746f20746865207a65726f2061646460008201527f7265737300000000000000000000000000000000000000000000000000000000602082015250565b7f4552433732313a20617070726f766520746f2063616c6c657200000000000000600082015250565b7f4552433732313a206f70657261746f7220717565727920666f72206e6f6e657860008201527f697374656e7420746f6b656e0000000000000000000000000000000000000000602082015250565b7f4552433732313a20617070726f76652063616c6c6572206973206e6f74206f7760008201527f6e6572206e6f7220617070726f76656420666f7220616c6c0000000000000000602082015250565b7f2e00000000000000000000000000000000000000000000000000000000000000600082015250565b7f4552433732313a2062616c616e636520717565727920666f7220746865207a6560008201527f726f206164647265737300000000000000000000000000000000000000000000602082015250565b7f4552433732313a206f776e657220717565727920666f72206e6f6e657869737460008201527f656e7420746f6b656e0000000000000000000000000000000000000000000000602082015250565b7f45524337323155524953746f726167653a2055524920736574206f66206e6f6e60008201527f6578697374656e7420746f6b656e000000000000000000000000000000000000602082015250565b7f222c20226465736372697074696f6e223a2022556e20646f6d696e696f20656e60008201527f20656c204d6163726f426c6f636b636861696e206e616d65207365727669636560208201527f222c2022696d616765223a2022646174613a696d6167652f7376672b786d6c3b60408201527f6261736536342c00000000000000000000000000000000000000000000000000606082015250565b7f227d000000000000000000000000000000000000000000000000000000000000600082015250565b7f46696a6573652071756520656c2072657469726f20646520666f6e646f73206660008201527f616c6c6f00000000000000000000000000000000000000000000000000000000602082015250565b7f4552433732313a206d696e7420746f20746865207a65726f2061646472657373600082015250565b7f45524337323155524953746f726167653a2055524920717565727920666f722060008201527f6e6f6e6578697374656e7420746f6b656e000000000000000000000000000000602082015250565b7f4552433732313a20617070726f76656420717565727920666f72206e6f6e657860008201527f697374656e7420746f6b656e0000000000000000000000000000000000000000602082015250565b7f4552433732314d657461646174613a2055524920717565727920666f72206e6f60008201527f6e6578697374656e7420746f6b656e0000000000000000000000000000000000602082015250565b7f7b226e616d65223a202200000000000000000000000000000000000000000000600082015250565b7f4552433732313a20617070726f76616c20746f2063757272656e74206f776e6560008201527f7200000000000000000000000000000000000000000000000000000000000000602082015250565b7f646174613a6170706c69636174696f6e2f6a736f6e3b6261736536342c000000600082015250565b7f222c226c656e677468223a220000000000000000000000000000000000000000600082015250565b50565b7f4552433732313a207472616e736665722063616c6c6572206973206e6f74206f60008201527f776e6572206e6f7220617070726f766564000000000000000000000000000000602082015250565b7f4e6f2068617920737566696369656e7465206d6174696320656e20737520636160008201527f7274657261000000000000000000000000000000000000000000000000000000602082015250565b6150558161472a565b811461506057600080fd5b50565b61506c8161474e565b811461507757600080fd5b50565b6150838161475a565b811461508e57600080fd5b50565b61509a816147a6565b81146150a557600080fd5b5056fe0a2d2d2d2d2d2d2d2d2d2d2d2d2d2d2d2d2d2d2d2d2d2d2d2d2d2d2d2d2d2d2d2d2d2d2d2d2d2d2d2d2d2d2d2d2d2d2d2d2d2d2d2d2d2d2d2d5365206861207265676973747261646f2025732e257320656e20656c20636f6e747261746f20636f6e20546f6b656e49442025642d2d2d2d2d2d2d2d2d2d2d2d2d2d2d2d2d2d2d2d2d2d2d2d2d2d2d2d2d2d2d2d2d2d2d2d2d2d2d2d2d2d2d2d2d2d2d2d2d2d2d2d2d2d2d2d0a456c206e6f6d62726520646520646f6d696e696f207061726120656c20746f6b656e2025732065732025734142434445464748494a4b4c4d4e4f505152535455565758595a6162636465666768696a6b6c6d6e6f707172737475767778797a303132333435363738392b2f4f6274656e6472656d6f7320746f646f73206c6f73206e6f6d6272657320646520646f6d696e696f2064656c20636f6e747261746fa26469706673582212207bfef32fdaee4728b40680907844dfab88597a621f814dd1e03d4a6a4129c88f64736f6c634300080400333c73766720786d6c6e733d22687474703a2f2f7777772e77332e6f72672f323030302f737667222077696474683d2232373022206865696768743d22323730222066696c6c3d226e6f6e65223e3c706174682066696c6c3d2275726c282342292220643d224d302030683237307632373048307a222f3e3c646566733e3c66696c7465722069643d22412220636f6c6f722d696e746572706f6c6174696f6e2d66696c746572733d2273524742222066696c746572556e6974733d227573657253706163654f6e55736522206865696768743d22323730222077696474683d22323730223e3c666544726f70536861646f772064783d2230222064793d22312220737464446576696174696f6e3d22322220666c6f6f642d6f7061636974793d222e323235222077696474683d223230302522206865696768743d2232303025222f3e3c2f66696c7465723e3c2f646566733e3c7061746820643d224d37322e3836332034322e393439632d2e3636382d2e3338372d312e3432362d2e35392d322e3139372d2e3539732d312e3532392e3230342d322e3139372e35396c2d31302e30383120362e3033322d362e383520332e3933342d31302e30383120362e303332632d2e3636382e3338372d312e3432362e35392d322e3139372e3539732d312e3532392d2e3230342d322e3139372d2e35396c2d382e3031332d342e37323161342e353220342e35322030203020312d312e3538392d312e363136632d2e3338342d2e3636352d2e3539342d312e3431382d2e3630382d322e313837762d392e3331632d2e3031332d2e3737352e3138352d312e3533382e3537322d322e32303861342e323520342e323520302030203120312e3632352d312e3539356c372e3838342d342e3539632e3636382d2e33383720312e3432362d2e353920322e3139372d2e353973312e3532392e32303420322e3139372e35396c372e38383420342e353961342e353220342e353220302030203120312e35383920312e363136632e3338342e3636352e35393420312e3431382e36303820322e31383776362e3033326c362e38352d342e303635762d362e303332632e3031332d2e3737352d2e3138352d312e3533382d2e3537322d322e32303861342e323520342e32352030203020302d312e3632352d312e3539354c34312e3435362032342e3539632d2e3636382d2e3338372d312e3432362d2e35392d322e3139372d2e3539732d312e3532392e3230342d322e3139372e35396c2d31342e38363420382e36353561342e323520342e32352030203020302d312e36323520312e353935632d2e3338372e36372d2e35383520312e3433342d2e35373220322e3230387631372e343431632d2e3031332e3737352e31383520312e3533382e35373220322e32303861342e323520342e323520302030203020312e36323520312e3539356c31342e38363420382e363535632e3636382e33383720312e3432362e353920322e3139372e353973312e3532392d2e32303420322e3139372d2e35396c31302e3038312d352e39303120362e38352d342e3036352031302e3038312d352e393031632e3636382d2e33383720312e3432362d2e353920322e3139372d2e353973312e3532392e32303420322e3139372e35396c372e38383420342e353961342e353220342e353220302030203120312e35383920312e363136632e3338342e3636352e35393420312e3431382e36303820322e31383776392e333131632e3031332e3737352d2e31383520312e3533382d2e35373220322e32303861342e323520342e32352030203020312d312e36323520312e3539356c2d372e38383420342e373231632d2e3636382e3338372d312e3432362e35392d322e3139372e3539732d312e3532392d2e3230342d322e3139372d2e35396c2d372e3838342d342e353961342e353220342e35322030203020312d312e3538392d312e363136632d2e3338352d2e3636352d2e3539342d312e3431382d2e3630382d322e313837762d362e3033326c2d362e383520342e30363576362e303332632d2e3031332e3737352e31383520312e3533382e35373220322e32303861342e323520342e323520302030203020312e36323520312e3539356c31342e38363420382e363535632e3636382e33383720312e3432362e353920322e3139372e353973312e3532392d2e32303420322e3139372d2e35396c31342e3836342d382e363535632e3635372d2e33393420312e3230342d2e393520312e3538392d312e363136732e3539342d312e3431382e3630392d322e3138375635352e353338632e3031332d2e3737352d2e3138352d312e3533382d2e3537322d322e32303861342e323520342e32352030203020302d312e3632352d312e3539356c2d31342e3939332d382e3738367a222066696c6c3d2223666666222f3e3c646566733e3c6c696e6561724772616469656e742069643d2242222078313d2230222079313d2230222078323d22323730222079323d2232373022206772616469656e74556e6974733d227573657253706163654f6e557365223e3c73746f702073746f702d636f6c6f723d2223636235656565222f3e3c73746f70206f66667365743d2231222073746f702d636f6c6f723d2223306364376534222073746f702d6f7061636974793d222e3939222f3e3c2f6c696e6561724772616469656e743e3c2f646566733e3c7465787420783d2233322e352220793d223233312220666f6e742d73697a653d223237222066696c6c3d2223666666222066696c7465723d2275726c282341292220666f6e742d66616d696c793d22506c7573204a616b617274612053616e732c44656a6156752053616e732c4e6f746f20436f6c6f7220456d6f6a692c4170706c6520436f6c6f7220456d6f6a692c73616e732d73657269662220666f6e742d7765696768743d22626f6c64223e",
    "linkReferences": {},
    "deployedLinkReferences": {}
}